{
  "_format": "hh-sol-artifact-1",
  "contractName": "Survey",
  "sourceName": "contracts/Survey.sol",
  "abi": [
    {
      "inputs": [
        {
          "internalType": "address",
          "name": "_owner",
          "type": "address"
        }
      ],
      "stateMutability": "payable",
      "type": "constructor"
    },
    {
      "anonymous": false,
      "inputs": [
        {
          "indexed": true,
          "internalType": "address",
          "name": "owner",
          "type": "address"
        },
        {
          "indexed": true,
          "internalType": "uint256",
          "name": "surveyReward",
          "type": "uint256"
        }
      ],
      "name": "SurveyInitialized",
      "type": "event"
    },
    {
      "inputs": [],
      "name": "factory",
      "outputs": [
        {
          "internalType": "address",
          "name": "",
          "type": "address"
        }
      ],
      "stateMutability": "view",
      "type": "function"
    },
    {
      "inputs": [],
      "name": "owner",
      "outputs": [
        {
          "internalType": "address",
          "name": "",
          "type": "address"
        }
      ],
      "stateMutability": "view",
      "type": "function"
    }
  ],
  "bytecode": "0x608060405260405161047d38038061047d833981810160405281019061002591906101d8565b600073ffffffffffffffffffffffffffffffffffffffff168173ffffffffffffffffffffffffffffffffffffffff161415610095576040517f08c379a000000000000000000000000000000000000000000000000000000000815260040161008c90610281565b60405180910390fd5b600034116100d8576040517f08c379a00000000000000000000000000000000000000000000000000000000081526004016100cf906102a1565b60405180910390fd5b806000806101000a81548173ffffffffffffffffffffffffffffffffffffffff021916908373ffffffffffffffffffffffffffffffffffffffff16021790555033600160006101000a81548173ffffffffffffffffffffffffffffffffffffffff021916908373ffffffffffffffffffffffffffffffffffffffff1602179055503460008054906101000a900473ffffffffffffffffffffffffffffffffffffffff1673ffffffffffffffffffffffffffffffffffffffff167f51cc12d146311daa1c27922fa9e4d8ab1b86db5194fa326537b50d6659ef84d160405160405180910390a35061031b565b6000815190506101d281610304565b92915050565b6000602082840312156101ea57600080fd5b60006101f8848285016101c3565b91505092915050565b600061020e601c836102c1565b91507f5375727665793a496e76616c6964206f776e65722061646472657373000000006000830152602082019050919050565b600061024e601f836102c1565b91507f5375727665793a20616d6f756e7420677265746572207468616e207a65726f006000830152602082019050919050565b6000602082019050818103600083015261029a81610201565b9050919050565b600060208201905081810360008301526102ba81610241565b9050919050565b600082825260208201905092915050565b60006102dd826102e4565b9050919050565b600073ffffffffffffffffffffffffffffffffffffffff82169050919050565b61030d816102d2565b811461031857600080fd5b50565b6101538061032a6000396000f3fe608060405234801561001057600080fd5b50600436106100365760003560e01c80638da5cb5b1461003b578063c45a015514610059575b600080fd5b610043610077565b60405161005091906100d0565b60405180910390f35b61006161009b565b60405161006e91906100d0565b60405180910390f35b60008054906101000a900473ffffffffffffffffffffffffffffffffffffffff1681565b600160009054906101000a900473ffffffffffffffffffffffffffffffffffffffff1681565b6100ca816100eb565b82525050565b60006020820190506100e560008301846100c1565b92915050565b60006100f6826100fd565b9050919050565b600073ffffffffffffffffffffffffffffffffffffffff8216905091905056fea26469706673582212203e77701938cb852c53488172b18a8a3f4a830f052475e7fdb1d09f5a601acc7c64736f6c63430008000033",
  "linkReferences": {},
  "deployedLinkReferences": {}
}