{
  "_format": "hh-sol-artifact-1",
  "contractName": "SurveyFactory",
  "sourceName": "contracts/SurveyFactory.sol",
  "abi": [
    {
      "inputs": [
        {
          "internalType": "uint256",
          "name": "_surveyCreationFees",
          "type": "uint256"
        }
      ],
      "stateMutability": "nonpayable",
      "type": "constructor"
    },
    {
      "anonymous": false,
      "inputs": [
        {
          "indexed": true,
          "internalType": "address",
          "name": "previousOwner",
          "type": "address"
        },
        {
          "indexed": true,
          "internalType": "address",
          "name": "newOwner",
          "type": "address"
        }
      ],
      "name": "OwnershipTransferred",
      "type": "event"
    },
    {
      "anonymous": false,
      "inputs": [
        {
          "indexed": true,
          "internalType": "address",
          "name": "owner",
          "type": "address"
        },
        {
          "indexed": true,
          "internalType": "uint256",
          "name": "surveyId",
          "type": "uint256"
        },
        {
          "indexed": true,
          "internalType": "address",
          "name": "surveyAddress",
          "type": "address"
        }
      ],
      "name": "SurveyCreated",
      "type": "event"
    },
    {
      "anonymous": false,
      "inputs": [
        {
          "indexed": true,
          "internalType": "uint256",
          "name": "surveyCreationFees",
          "type": "uint256"
        }
      ],
      "name": "SurveyFactoryInitialized",
      "type": "event"
    },
    {
      "inputs": [],
      "name": "createSurvey",
      "outputs": [
        {
          "internalType": "uint256",
          "name": "surveyId",
          "type": "uint256"
        },
        {
          "internalType": "address",
          "name": "newSurveyAddress",
          "type": "address"
        }
      ],
      "stateMutability": "payable",
      "type": "function"
    },
    {
      "inputs": [],
      "name": "owner",
      "outputs": [
        {
          "internalType": "address",
          "name": "",
          "type": "address"
        }
      ],
      "stateMutability": "view",
      "type": "function"
    },
    {
      "inputs": [],
      "name": "renounceOwnership",
      "outputs": [],
      "stateMutability": "nonpayable",
      "type": "function"
    },
    {
      "inputs": [],
      "name": "surveyCreationFees",
      "outputs": [
        {
          "internalType": "uint256",
          "name": "",
          "type": "uint256"
        }
      ],
      "stateMutability": "view",
      "type": "function"
    },
    {
      "inputs": [
        {
          "internalType": "address",
          "name": "",
          "type": "address"
        }
      ],
      "name": "surveyOwners",
      "outputs": [
        {
          "internalType": "address",
          "name": "owner",
          "type": "address"
        },
        {
          "internalType": "uint256",
          "name": "id",
          "type": "uint256"
        }
      ],
      "stateMutability": "view",
      "type": "function"
    },
    {
      "inputs": [
        {
          "internalType": "uint256",
          "name": "",
          "type": "uint256"
        }
      ],
      "name": "surveys",
      "outputs": [
        {
          "internalType": "address",
          "name": "",
          "type": "address"
        }
      ],
      "stateMutability": "view",
      "type": "function"
    },
    {
      "inputs": [
        {
          "internalType": "address",
          "name": "newOwner",
          "type": "address"
        }
      ],
      "name": "transferOwnership",
      "outputs": [],
      "stateMutability": "nonpayable",
      "type": "function"
    }
  ],
  "bytecode": "0x608060405234801561001057600080fd5b5060405161126738038061126783398181016040528101906100329190610139565b600061004261011c60201b60201c565b9050806000806101000a81548173ffffffffffffffffffffffffffffffffffffffff021916908373ffffffffffffffffffffffffffffffffffffffff1602179055508073ffffffffffffffffffffffffffffffffffffffff16600073ffffffffffffffffffffffffffffffffffffffff167f8be0079c531659141344cd1fd0a4f28419497f9722a3daafe3b4186f6b6457e060405160405180910390a350806001819055506001547ff184369f39717f266f1bf357eb0874181686f3e1fc282ae9605ba4bfd30635bb60405160405180910390a250610183565b600033905090565b6000815190506101338161016c565b92915050565b60006020828403121561014b57600080fd5b600061015984828501610124565b91505092915050565b6000819050919050565b61017581610162565b811461018057600080fd5b50565b6110d5806101926000396000f3fe6080604052600436106200007a5760003560e01c80638da5cb5b11620000555780638da5cb5b1462000122578063a934bafe1462000152578063c65dfc9f1462000182578063f2fde38b14620001a5576200007a565b806334819bdc146200007f578063715018a614620000c457806386e68b9014620000de575b600080fd5b3480156200008c57600080fd5b50620000ab6004803603810190620000a5919062000871565b620001d3565b604051620000bb92919062000a36565b60405180910390f35b348015620000d157600080fd5b50620000dc62000217565b005b348015620000eb57600080fd5b506200010a60048036038101906200010491906200089d565b62000358565b60405162000119919062000a19565b60405180910390f35b3480156200012f57600080fd5b506200013a62000398565b60405162000149919062000a19565b60405180910390f35b3480156200015f57600080fd5b506200016a620003c1565b60405162000179919062000aeb565b60405180910390f35b6200018c620003c7565b6040516200019c92919062000b08565b60405180910390f35b348015620001b257600080fd5b50620001d16004803603810190620001cb919062000871565b6200067a565b005b60036020528060005260406000206000915090508060000160009054906101000a900473ffffffffffffffffffffffffffffffffffffffff16908060010154905082565b620002216200082d565b73ffffffffffffffffffffffffffffffffffffffff166200024162000398565b73ffffffffffffffffffffffffffffffffffffffff16146200029a576040517f08c379a0000000000000000000000000000000000000000000000000000000008152600401620002919062000aa7565b60405180910390fd5b600073ffffffffffffffffffffffffffffffffffffffff1660008054906101000a900473ffffffffffffffffffffffffffffffffffffffff1673ffffffffffffffffffffffffffffffffffffffff167f8be0079c531659141344cd1fd0a4f28419497f9722a3daafe3b4186f6b6457e060405160405180910390a360008060006101000a81548173ffffffffffffffffffffffffffffffffffffffff021916908373ffffffffffffffffffffffffffffffffffffffff160217905550565b600281815481106200036957600080fd5b906000526020600020016000915054906101000a900473ffffffffffffffffffffffffffffffffffffffff1681565b60008060009054906101000a900473ffffffffffffffffffffffffffffffffffffffff16905090565b60015481565b600080620003d462000398565b73ffffffffffffffffffffffffffffffffffffffff163373ffffffffffffffffffffffffffffffffffffffff16141562000445576040517f08c379a00000000000000000000000000000000000000000000000000000000081526004016200043c9062000a85565b60405180910390fd5b60015434116200048c576040517f08c379a0000000000000000000000000000000000000000000000000000000008152600401620004839062000ac9565b60405180910390fd5b6000600154346200049e919062000b46565b905060008133604051620004b29062000835565b620004be919062000a19565b6040518091039082f0905080158015620004dc573d6000803e3d6000fd5b5090508092506002839080600181540180825580915050600190039060005260206000200160009091909190916101000a81548173ffffffffffffffffffffffffffffffffffffffff021916908373ffffffffffffffffffffffffffffffffffffffff160217905550600160028054905062000559919062000b46565b935060405180604001604052803373ffffffffffffffffffffffffffffffffffffffff16815260200185815250600360008573ffffffffffffffffffffffffffffffffffffffff1673ffffffffffffffffffffffffffffffffffffffff16815260200190815260200160002060008201518160000160006101000a81548173ffffffffffffffffffffffffffffffffffffffff021916908373ffffffffffffffffffffffffffffffffffffffff160217905550602082015181600101559050508273ffffffffffffffffffffffffffffffffffffffff16843373ffffffffffffffffffffffffffffffffffffffff167f4fc6e968dd0adb70735b85cd0ae0a00f84780b7dac7193d01caa4418b3432b9260405160405180910390a450509091565b620006846200082d565b73ffffffffffffffffffffffffffffffffffffffff16620006a462000398565b73ffffffffffffffffffffffffffffffffffffffff1614620006fd576040517f08c379a0000000000000000000000000000000000000000000000000000000008152600401620006f49062000aa7565b60405180910390fd5b600073ffffffffffffffffffffffffffffffffffffffff168173ffffffffffffffffffffffffffffffffffffffff16141562000770576040517f08c379a0000000000000000000000000000000000000000000000000000000008152600401620007679062000a63565b60405180910390fd5b8073ffffffffffffffffffffffffffffffffffffffff1660008054906101000a900473ffffffffffffffffffffffffffffffffffffffff1673ffffffffffffffffffffffffffffffffffffffff167f8be0079c531659141344cd1fd0a4f28419497f9722a3daafe3b4186f6b6457e060405160405180910390a3806000806101000a81548173ffffffffffffffffffffffffffffffffffffffff021916908373ffffffffffffffffffffffffffffffffffffffff16021790555050565b600033905090565b61047d8062000c2383390190565b600081359050620008548162000bee565b92915050565b6000813590506200086b8162000c08565b92915050565b6000602082840312156200088457600080fd5b6000620008948482850162000843565b91505092915050565b600060208284031215620008b057600080fd5b6000620008c0848285016200085a565b91505092915050565b620008d48162000b81565b82525050565b6000620008e960268362000b35565b91507f4f776e61626c653a206e6577206f776e657220697320746865207a65726f206160008301527f64647265737300000000000000000000000000000000000000000000000000006020830152604082019050919050565b60006200095160198362000b35565b91507f537572766579466163746f72793a2072657374726963746564000000000000006000830152602082019050919050565b60006200099360208362000b35565b91507f4f776e61626c653a2063616c6c6572206973206e6f7420746865206f776e65726000830152602082019050919050565b6000620009d560208362000b35565b91507f537572766579466163746f72793a204e6f7420656e6f756768206574686572736000830152602082019050919050565b62000a138162000bb5565b82525050565b600060208201905062000a306000830184620008c9565b92915050565b600060408201905062000a4d6000830185620008c9565b62000a5c602083018462000a08565b9392505050565b6000602082019050818103600083015262000a7e81620008da565b9050919050565b6000602082019050818103600083015262000aa08162000942565b9050919050565b6000602082019050818103600083015262000ac28162000984565b9050919050565b6000602082019050818103600083015262000ae481620009c6565b9050919050565b600060208201905062000b02600083018462000a08565b92915050565b600060408201905062000b1f600083018562000a08565b62000b2e6020830184620008c9565b9392505050565b600082825260208201905092915050565b600062000b538262000bb5565b915062000b608362000bb5565b92508282101562000b765762000b7562000bbf565b5b828203905092915050565b600062000b8e8262000b95565b9050919050565b600073ffffffffffffffffffffffffffffffffffffffff82169050919050565b6000819050919050565b7f4e487b7100000000000000000000000000000000000000000000000000000000600052601160045260246000fd5b62000bf98162000b81565b811462000c0557600080fd5b50565b62000c138162000bb5565b811462000c1f57600080fd5b5056fe608060405260405161047d38038061047d833981810160405281019061002591906101d8565b600073ffffffffffffffffffffffffffffffffffffffff168173ffffffffffffffffffffffffffffffffffffffff161415610095576040517f08c379a000000000000000000000000000000000000000000000000000000000815260040161008c90610281565b60405180910390fd5b600034116100d8576040517f08c379a00000000000000000000000000000000000000000000000000000000081526004016100cf906102a1565b60405180910390fd5b806000806101000a81548173ffffffffffffffffffffffffffffffffffffffff021916908373ffffffffffffffffffffffffffffffffffffffff16021790555033600160006101000a81548173ffffffffffffffffffffffffffffffffffffffff021916908373ffffffffffffffffffffffffffffffffffffffff1602179055503460008054906101000a900473ffffffffffffffffffffffffffffffffffffffff1673ffffffffffffffffffffffffffffffffffffffff167f51cc12d146311daa1c27922fa9e4d8ab1b86db5194fa326537b50d6659ef84d160405160405180910390a35061031b565b6000815190506101d281610304565b92915050565b6000602082840312156101ea57600080fd5b60006101f8848285016101c3565b91505092915050565b600061020e601c836102c1565b91507f5375727665793a496e76616c6964206f776e65722061646472657373000000006000830152602082019050919050565b600061024e601f836102c1565b91507f5375727665793a20616d6f756e7420677265746572207468616e207a65726f006000830152602082019050919050565b6000602082019050818103600083015261029a81610201565b9050919050565b600060208201905081810360008301526102ba81610241565b9050919050565b600082825260208201905092915050565b60006102dd826102e4565b9050919050565b600073ffffffffffffffffffffffffffffffffffffffff82169050919050565b61030d816102d2565b811461031857600080fd5b50565b6101538061032a6000396000f3fe608060405234801561001057600080fd5b50600436106100365760003560e01c80638da5cb5b1461003b578063c45a015514610059575b600080fd5b610043610077565b60405161005091906100d0565b60405180910390f35b61006161009b565b60405161006e91906100d0565b60405180910390f35b60008054906101000a900473ffffffffffffffffffffffffffffffffffffffff1681565b600160009054906101000a900473ffffffffffffffffffffffffffffffffffffffff1681565b6100ca816100eb565b82525050565b60006020820190506100e560008301846100c1565b92915050565b60006100f6826100fd565b9050919050565b600073ffffffffffffffffffffffffffffffffffffffff8216905091905056fea26469706673582212203e77701938cb852c53488172b18a8a3f4a830f052475e7fdb1d09f5a601acc7c64736f6c63430008000033a2646970667358221220a655997f22f7504337da3c99730cf64748881d87e6218bf1283bbbfe58552bd964736f6c63430008000033",
  "linkReferences": {},
  "deployedLinkReferences": {}
}